:1000000012C021C020C01FC01EC01DC01CC01BC00C
:10001000C9C053C118C08DC116C015C014C013C0CB
:1000200012C011C010C011241FBECFE5D4E0DEBF46
:10003000CDBF20E0A0E6B0E001C01D92A438B20719
:10004000E1F7A4D094C1DCCF833439F0843441F09B
:10005000823449F467BB81E0089564BB81E0089570
:1000600061BB81E0089580E00895009779F482E013
:1000700083BF12BE89B7816089BF10926800109259
:10008000690010926A0010926B0008950197B1F414
:100090008EB582608EBD89B7846089BF1DBC1CBCD3
:1000A00080E593EC97BD86BD789410926400109221
:1000B00065001092660010926700089582E083BF89
:1000C00012BE89B7816089BF8EB582608EBD89B747
:1000D000846089BF1DBC1CBC80E593EC97BD86BDC8
:1000E0007894109268001092690010926A00109241
:1000F0006B001092640010926500109266001092DE
:100100006700089510BC8DE489B91BB886E880BDEE
:1001100088E08AB9089580E487B987E886B91092A3
:100120006F0010926E0008958AE0E0E7F0E0DF01D2
:100130001D928A95E9F710926D001092600010925E
:100140006100109262001092630010926C006FE0E8
:1001500070E083E479DF83E090E087DFDCDFD2DFEB
:100160000895877097B1987F892B87B986B180648D
:1001700086B93699FECF84B195B190936F00809384
:100180006E0008955D9BFECF8CB908957894CCDF06
:1001900080916C008823E1F380916D00F3DF109271
:1001A0006C00F6CF1F920F920FB60F9211242F936F
:1001B0003F934F935F936F937F938F939F93AF93EF
:1001C000BF93EF93FF938091640090916500A0919D
:1001D0006600B09167000196A11DB11D8093640077
:1001E00090936500A0936600B093670080916400CF
:1001F00090916500A0916600B09167004E97A105AF
:10020000B10599F595B381E0892785BB109264000B
:100210001092650010926600109267008091600055
:1002200090916100A0916200B09163000196A11DC0
:10023000B11D8093600090936100A0936200B09321
:10024000630087E08EDF40916E0050916F0024EFD5
:1002500031E0429FC001439F900D529F900D1124A9
:100260006FEF73E070D060936D00809160009091AB
:100270006100A0916200B09163000597A105B105EE
:1002800059F481E080936C0010926000109261003C
:100290001092620010926300FF91EF91BF91AF91B5
:1002A0009F918F917F916F915F914F913F912F918E
:1002B0000F900FBE0F901F9018951F920F920FB6C0
:1002C0000F9211242F938F939F93AF93BF9380919D
:1002D000680090916900A0916A00B0916B0001964E
:1002E000A11DB11D8093680090936900A0936A00DE
:1002F000B0936B008091680090916900A0916A00B2
:10030000B0916B00883B9B40A105B10541F4109270
:1003100068001092690010926A0010926B00BF9101
:10032000AF919F918F912F910F900FBE0F901F90C3
:1003300018951F920F920FB60F9211240F900FBEB7
:100340000F901F901895AA1BBB1B51E107C0AA1F55
:10035000BB1FA617B70710F0A61BB70B881F991F66
:100360005A95A9F780959095BC01CD010895F89410
:02037000FFCFBD
:00000001FF
