S01300004E6F64655F4D61737465722E73726563C0
S113000012C021C020C01FC01EC01DC01CC01BC008
S11300101AC019C018C036C016C015C014C013C009
S113002012C011C010C011241FBECFE5D4E0DEBF42
S1130030CDBF20E0A0E6B0E001C01D92A136B2071A
S1130040E1F711D045C0DCCF83E084BB089510BC38
S11300508FE289B91BB886E880BD88E98AB908951A
S1130060F3DFF5DF08957894FBDFFFCF5D9BFECFD0
S11300708CB908958CB18093600095B38FE0892783
S113008085BB08951F920F920FB60F9211242F93E0
S11300903F934F935F936F937F938F939F93AF930C
S11300A0BF93EF93FF93E6DF80916000DFDFFF9162
S11300B0EF91BF91AF919F918F917F916F915F91DC
S11300C04F913F912F910F900FBE0F901F90189555
S10700D0F894FFCFCE
S9030000FC
